:020000040800F2
:10000000FCFF0020951E0000B51E0000B51E00007C
:10001000B51E0000B51E0000B51E0000B51E000094
:10002000B51E0000B51E0000B51E0000B51E000084
:10003000B51E0000B51E0000B51E0000B51E000074
:10004000B51E0000B51E0000B51E0000B51E000064
:10005000B51E0000B51E0000B51E0000B51E000054
:10006000B51E0000B51E0000B51E0000B51E000044
:10007000B51E0000B51E0000B51E0000B51E000034
:10008000B51E0000B51E0000B51E0000B51E000024
:10009000B51E0000B51E0000B51E0000B51E000014
:1000A000B51E0000B51E0000B51E0000B51E000004
:1000B000751E0000B51E0000B51E0000B51E000034
:1000C000B51E0000B51E0000B51E0000B51E0000E4
:1000D000B51E0000B51E0000B51E0000B51E0000D4
:1000E000B51E0000B51E0000B51E0000B51E0000C4
:1000F000B51E0000B51E0000B51E0000B51E0000B4
:10010000B51E0000B51E0000B51E0000B51E0000A3
:10011000B51E0000B51E0000B51E0000B51E000093
:10012000B51E0000B51E0000B51E0000B51E000083
:10013000B51E0000B51E0000B51E0000B51E000073
:10014000B51E0000B51E0000B51E0000B51E000063
:1001500001480068704700BF3402002083B0CDF82A
:1001600000E000F0FF031A09104603F00F021346E7
:1001700014E0194A02921FE0184A02921CE0184A41
:10018000029219E0174A029216E0174A029213E00F
:10019000164A029210E0164A02920DE00028E8D0BA
:1001A0000128E9D00228EAD00328EBD00428ECD0BB
:1001B0000528EDD00628EED0012212B29A40ADF803
:1001C000042002980A46BDF8041000F0BBFBDDF8DD
:1001D00000E003B0704700BF00080140000C014080
:1001E000001001400014014000180140001C0140B3
:1001F0000020014081B00168C1F3801001B0704758
:10020000014640F2000340F2000082B20846C118E5
:10021000097821B15B1C9BB2521C92B2F7E790B2F5
:100220007047FFFF81B0194900EA0101084600222A
:100230000EE0042022E0082020E010201EE0202014
:100240001CE040201AE0802018E040F2001015E089
:100250000F498842EDD00F498842ECD00E498842C0
:10026000EBD00E498842EAD00D498842E9D00D49C9
:100270008842E8D00C498842E7D010460B4909680B
:1002800041EA000209490A6001B0704700FCFFFF23
:1002900000080140000C0140001001400014014022
:1002A00000180140001C01400020014018100240CD
:1002B00093B20A46014640F2000440F200001FFAE1
:1002C00080F810469AB2EAB10B191D78EEB2631CA1
:1002D0009FB200EB08031C785FFA84F908F101086B
:1002E0001FFA88F8A54207D04E4502D2FF2040B23F
:1002F00001E0012040B207E006B903E0521E92B2CD
:10030000BCB2E0E7002040B27047FFFF81B0026856
:10031000C2F3401101B9FAE7011D096888B201B0C2
:100320007047FFFF82B0CDF800E003461946019107
:10033000FFF70EFF40F2E83100FB01F201990A607D
:100340001F490978C1F30311C8B21E49091808787A
:10035000C0B21A1D1968C140116019490988C1F35A
:10036000022188B2174909180878C0B203F20802BE
:10037000191D0968C140116011490988C1F3C221E2
:1003800088B2104909180878C0B203F20C02191D8E
:100390000968C14011600A490988C1F3813188B2F6
:1003A000094909180978C8B203F2100203F20C01D6
:1003B0000968B1FBF0F11160DDF800E002B07047B0
:1003C000041002400C2400002824000081B0CDF865
:1003D00000E0012252B23E490A6000F268010B6857
:1003E0006FF0006103EA0102144603F00061C90ED8
:1003F0000B4602F00041B1F1004F02D135490A68C5
:1004000001E035490A6804F47021090C0E464FF6E4
:10041000FF7104EA01010D4604F44011B1F5401FDB
:100420000DD16FF0706102EA01010E462A490A6897
:100430006FF070610A4028490A60324616E004F401
:100440008011B1F5801F09D14FF00301B140C943BC
:1004500002EA010141F070610A4607E0610D0901FD
:1004600005FA01F1C9430A4042F070622BB1610DF7
:10047000090105FA01F10A43FFE704F00041B1F177
:10048000004F02D113490A6001E013490A6040F2AB
:10049000000A81464FEA8A0109EB01010968B1F1BE
:1004A000FF3F10D009F134014FEA8A03C9180968E7
:1004B0000A4609EB0301096808461146FFF74EFE9C
:1004C0000AF1010AE6E7DDF800E001B0704700BF7D
:1004D000000342421C0001400400014081B0016859
:1004E000C1F3401001B0704781B0CDF800E003487F
:1004F000FFF780FEDDF800E001B07047004C0040DF
:1005000081B0CDF800E00348FFF700FFDDF800E020
:1005100001B070470050004081B0CDF800E00348C2
:10052000FFF7DCFFDDF800E001B07047004C004051
:1005300081B0ADF800100146BDF800000B68C3F3B0
:10054000C01202B9FAE70A1D106001B07047FFFF40
:1005500081B0CDF800E00348FFF7D8FEDDF800E0F9
:1005600001B07047004C004081B0CDF800E0034876
:10057000FFF740FEDDF800E001B0704700380140B1
:1005800081B0CDF800E00348FFF7C0FEDDF800E0E1
:1005900001B070470044004081B0CDF800E003484E
:1005A000FFF7B4FEDDF800E001B07047003801400D
:1005B00081B0CDF800E00348FFF790FFDDF800E0E0
:1005C00001B070470038014081B0CDF800E0034829
:1005D000FFF784FFDDF800E001B070470044004001
:1005E00081B0CDF800E00348FFF778FFDDF800E0C8
:1005F00001B070470048004081B0CDF800E00348EA
:10060000FFF7F8FDDDF800E001B07047004800405A
:1006100081B0CDF800E00348FFF7ECFDDDF800E025
:1006200001B070470044004081B0CDF800E00348BD
:10063000FFF76CFEDDF800E001B0704700480040B5
:1006400085B0CDF800E0824602918DF80C208DF83F
:1006500010305046FFF7D4FD8DF81100C4B2102CB5
:1006600002D910248DF81140012751469DF80C4005
:10067000A7423FD2032404FB07F5029C64190191B1
:100680002046FFF7BDFD0199C2B240F2000C8A4638
:10069000F9B25FFA8CFB5FFA82FC9DF81140A3452A
:1006A00023D20AEB0B06032404FB01F5029C641918
:1006B0008DF804105FFA8CF231462046FFF7F8FD02
:1006C0009DF8041058B99DF810400CB9C8B212E05A
:1006D0009DF81040012C02D15FFA8BF00BE00BF17A
:1006E0000104E0B25FFA80FBD7E74C1CE5B251464B
:1006F000EFB2BBE70020DDF800E005B07047FFFF78
:1007000089B0CDF800E0834698B28C46BDF824103D
:100710000A9E04ACADF80410ADF808002046FFF7BF
:1007200001FEBDF80800BDF80410644CA34512D1C9
:1007300001256DB2624C2560624D634C2560634DAE
:10074000634C2560634D644C2560644D644C2560AA
:10075000079C039456E0634CA34512D101256DB26A
:10076000614C2560614D584C2560614D584C2560A9
:10077000604D594C2560604D594C2560069C039492
:1007800040E05E4CA34512D101256DB25C4C256062
:100790005C4D4D4C25605C4D4D4C25605B4D4E4C89
:1007A00025605B4D4E4C2560069C03942AE0594C15
:1007B000A34512D101256DB2574C2560574D424CCF
:1007C0002560574D424C2560564D434C2560564D93
:1007D000434C2560069C039414E0544CA34511D16E
:1007E00001256DB2524C2560524D374C2560524D5B
:1007F000374C2560514D384C2560514D384C2560A3
:10080000069C0394ADF80410ADF808003046FFF7DD
:10081000DDFDBDF80800BDF804100BF11005002443
:100820002C600BF110052C680C432C600BF10C05AF
:1008300000242C6018B140F4806080B2FFE70BF117
:100840000C052C6804432C600BF10C060125346860
:1008500065F34D3434600BF10C060125346865F303
:10086000C30434600BF10C060125346865F382047F
:1008700034600BF1140500242C60039D192465439A
:100880004FEA8C04B5FBF4F76424B7FBF4F42601BB
:10089000350964246C433C1B240104F232056424B2
:1008A000B5FBF4F404F00F0446EA04040BF1080568
:1008B000A4B22C60DDF800E009B0704700380140B8
:1008C00038034242DD0C0000380200209905000088
:1008D0003C020020B1050000400200206905000034
:1008E0004402002000440040C4034242A50C000022
:1008F00081050000C9050000110600000048004005
:10090000C8034242C10C000029060000E1050000B6
:10091000F9050000004C0040CC034242750D000078
:100920005105000019050000E904000000500040D6
:10093000D0034242B50E000001050000DD0B0000AF
:10094000C50B000081B0CDF800E08CB21546774BA6
:1009500000EA03031E461846FFF764FCB4F1FF0FDC
:100960000CD1734B9D4203D14FF033333360D9E048
:10097000422D03D14FF044333360D3E04FF6FF7381
:100980009C4214D16A4B9D4207D14FF03333336000
:10099000341D4FF033332360C4E0422D07D14FF0B4
:1009A00044333360341D4FF044332360BAE00021F8
:1009B000002005F001030BB100211DE005F002034A
:1009C00033B105F4C0730BB1082100E0042113E03A
:1009D00005F0040333B105F020030BB1042100E05E
:1009E000002109E005F0080333B105F020030BB145
:1009F0000C2100E00821FFE74E4B05EA03030BB191
:100A0000032009E005F400730BB1022004E005F4B3
:100A100080630BB10120FFE705F00C030BB101432C
:100A2000FFE704F0FF039BB2002B3BD037680020A8
:100A30001FFA84F832462E4608282CD24FF00103C4
:100A400003FA00F408EA0403A34222D185004FF020
:100A50000F03AB40DB4307EA030401FA05F344EA62
:100A600003031D4606F48173B3F5817F05D102F2BD
:100A700014044FF001038340236006F08203822BAD
:100A800005D102F210044FF00103834023602F468A
:100A9000FFE7401CD0E717601FFA88F00F46314689
:100AA000164602E00F462946A0B2B0F1FF0F39D931
:100AB000331DD3F800800022082A30D202F2080445
:100AC0004FF0010303FA04F400EA0403A34224D123
:100AD00095004FF00F03AB40DB4308EA030807FA29
:100AE00005F348EA030801F48173B3F5817F07D168
:100AF00006F2140502F208044FF00103A3402B6034
:100B000001F08203822B07D106F2100502F20804DD
:100B10004FF00103A3402B60FFE7521CCCE7331DCD
:100B2000C3F80080DDF800E001B0704700FCFFFF73
:100B3000140008000008080081B0CDF800E0044669
:100B40002046FFF75DFBC5B2204600F09BFB012469
:100B5000EBB20D4909888C4211D222010B49891848
:100B60000988994208D1220108498918091D096894
:100B7000814201D1A0B203E0641CA4B2E9E70020E5
:100B8000DDF800E001B070474C0200205002002068
:100B900081B0044640F20000ADF8002082B2084661
:100BA000BDF8001059B183181B782370237813B156
:100BB000521C92B2FFE7641C491E89B2F2E701B0F1
:100BC0007047FFFF81B0CDF800E00348FFF712FB4C
:100BD000DDF800E001B070470050004081B0CDF872
:100BE00000E00348FFF77AFCDDF800E001B0704751
:100BF0000050004081B0CDF800E04FF0420289B2D1
:100C0000FFF7A0FEDDF800E001B0704781B0CDF83D
:100C100000E0044C2468A047C0B2DDF800E001B059
:100C2000704700BF5804002081B0CDF800E0044AAE
:100C300089B2FFF787FEDDF800E001B0704700BF22
:100C40001400080081B0CDF800E0034C2468A047F0
:100C5000DDF800E001B070474802002081B0CDF817
:100C600000E0044C2468A047C0B2DDF800E001B009
:100C7000704700BF5C04002081B0CDF800E0019D0A
:100C80002C4610B408B493B28AB201460348FFF769
:100C900037FD02B0DDF800E001B0704700380140D8
:100CA0007047FFFF81B0CDF800E081B20348FFF745
:100CB0003FFCDDF800E001B0704700BF0044004099
:100CC00081B0CDF800E081B20348FFF731FCDDF8D8
:100CD00000E001B0704700BF0048004081B0CDF88F
:100CE00000E081B20348FFF723FCDDF800E001B02B
:100CF000704700BF00380140002215490A700022E9
:100D000014490A70012214490A70002213490A602A
:100D1000012213490A7013490A8813498918087077
:100D2000104909884A1C0F490A800E490A880F4950
:100D30008A4202D301220E490A700A490988B1F198
:100D4000FF0F04D1074909884A1E06490A807047E7
:100D50006304002062040020600400206C05002071
:100D6000670500206404002066040020C000000025
:100D70006104002081B0CDF800E081B20348FFF7A4
:100D8000D7FBDDF800E001B0704700BF004C004029
:100D900081B0CDF800E0019D2C4610B408B493B2A8
:100DA0008AB201460348FFF7ABFC02B0DDF800E071
:100DB00001B070470048004089B0CDF800E00690CF
:100DC00007910DF1040B0BF1110ADFF8B0C000F030
:100DD00075FF002307222A490698FFF731FC8DF89A
:100DE00020000123072226490698FFF729FC8DF8E9
:100DF00021000023062223490698FFF721FC8DF8E5
:100E00002200012306221F490698FFF719FCC1B2F0
:100E100008B9102000E0C8B29DF82120841A9DF87E
:100E20002130069AD31801AA19461046A2B2FFF73C
:100E3000AFFE01AA1046FFF77FFEC1B2C2B2130196
:100E4000114AD2180C321368079A1360079A141DBE
:100E50000B010D4AD218083212682260079A02F27A
:100E600008039DF820201A70079A0832531C9DF839
:100E700022201A70DDF800E009B07047E823000076
:100E8000070200201C0200205002002081B0CDF893
:100E900000E0019D2C4610B408B493B28AB201461A
:100EA0000348FFF72DFC02B0DDF800E001B0704709
:100EB0000044004081B0CDF800E081B20348FFF764
:100EC00037FBDDF800E001B0704700BF0050004084
:100ED00001490860704700BFAC81224201490860A7
:100EE000704700BF9881224201490860704700BFE7
:100EF0009481224201490860704700BFB0812242BC
:100F000001490860704700BFA801224201490860FA
:100F1000704700BFAC01224201490860704700BF22
:100F2000B001224201490860704700BF9881214208
:100F30000A46014640F2000440F2000086B2104624
:100F4000A3B2621C95B2CC18B3B2721C96B2C2188E
:100F50001278227022780AB1ACB2F1E77047FFFF35
:100F600081B0CDF800E00020012806D0FFF776FE22
:100F700018B1FFF74BFEFFF7BFFE5248007800287C
:100F800000F03A805048007810B1002000F078F965
:100F900000214E48017000214D4801704D480078F5
:100FA000022805D14C494D484D4C2468A0470BE020
:100FB0004B494A48FFF700FF022146480170464965
:100FC0004648474C2468A04700213E480170002154
:100FD00044480180002141480170002142480170CD
:100FE00000214248017000214148017036480078D4
:100FF00010B1012000F044F93C48007800282CD0C2
:101000003148007810B1002000F03AF900212F4853
:10101000017000212E48017031493048FFF7CCFEA5
:1010200000212C4801702C492C482D4C2468A047E5
:1010300000212C48018000212848017000212A4805
:1010400001700021294801700021294801701E48C3
:10105000007810B1012000F013F92348007800282F
:101060002CD01948007810B1002000F009F90021B7
:101070001648017000211648017019491748FFF7FA
:101080009BFE01211348017013491448144C246835
:10109000A047002113480180002110480170002161
:1010A00011480170002111480170002110480170A1
:1010B0000548007810B1012000F0E2F8DDF800E00A
:1010C00001B07047610400202F0200206705002056
:1010D000660500207A0500207805002066040020BF
:1010E00070050020640400206304002062040020D6
:1010F0006004002084B0CDF800E08DF80C10027878
:1011000002B3164A12789AB10146FFF7C9FD20B121
:10111000002252B28DF8082003E0012252B28DF86D
:1011200008209DF908200AB100BFEEE70846FFE756
:1011300002780190D0B2FFF785FD0198421C11465C
:101140000846DCE79DF80C00FFF77CFD0A20FFF75E
:1011500079FDDDF800E004B0704700BF2F020020E9
:1011600081B0CDF800E0012100F0E6FBDDF800E001
:1011700001B0704701490860704700BF9C8121425F
:1011800044F67F77C0F212077F1EFDD100BF00BF7B
:1011900000BF00BF00BF704741F6FF27C0F2B7078E
:1011A0007F1EFDD100BF00BF00BF00BF00BF704762
:1011B00081B0EFF3108C604662B601B07047FFFF5C
:1011C00081B0042806D11949096841F480321749D1
:1011D0000A6028E0052806D11449096841F4003264
:1011E00012490A601FE0062806D11049096841F437
:1011F00080220E490A6016E00F2806D10C490968C2
:1012000041F002020A490A600DE010280BD3A0F257
:10121000100461098A0007498B1804F01F024FF07F
:1012200001019140196001B0704700BF24ED00E05A
:1012300010E000E000E100E081B0CDF800E00178CE
:10124000CCB2A0B2034C2468A0470020DDF800E037
:1012500001B0704730020020026806490A60011D93
:101260000A6805490A6000F208010A6803490A6031
:10127000704700BF48020020580400205C04002092
:101280007047FFFF00214FF005040346C8B21A461D
:10129000591C0B461178CAB24AB100F00701C9B215
:1012A00002FA01F189B26418401CC0B2EFE720468F
:1012B0007047FFFF026803490A60011D0A6802497E
:1012C0000A607047540400205004002081B0CDF81B
:1012D00000E0094902B440F2000340F2000240F28B
:1012E0000001FFF7D3FD01B0044A05490A60002060
:1012F000DDF800E001B070471C230000A50C0000E1
:101300003002002081B0CDF800E00B4D00F20C015E
:101310000C6800F208010B68011D0A6801680846A4
:1013200091B29AB2A3B220B4FFF732FD01B000200F
:10133000DDF800E001B070474422000081B0CDF834
:1013400000E0A9E0012905D140F220016548FFF73E
:1013500051FC04E040F220016248FFF765FCBBE06D
:10136000012905D140F208015F48FFF743FC04E082
:1013700040F208015C48FFF757FCADE0012905D1B8
:1013800044F200015948FFF735FC04E044F2000143
:101390005648FFF749FC9FE0012905D140F2004182
:1013A0005148FFF727FC04E040F200414E48FFF7A8
:1013B0003BFC91E0012905D140F600014A48FFF7C6
:1013C00019FC04E040F600014748FFF72DFC83E0DC
:1013D000012905D141F200014348FFF70BFC04E06D
:1013E00041F200014048FFF71FFC75E0012905D1DB
:1013F00041F200013D48FFF7FDFB04E041F200012E
:101400003A48FFF711FC67E0012905D140F60001D9
:101410003648FFF7EFFB04E040F600013348FFF7E2
:1014200003FC59E0012905D140F240012F48FFF7A4
:10143000E1FB04E040F240012C48FFF7F5FB4BE0F4
:10144000012905D140F220012848FFF7D3FB04E031
:1014500040F220012548FFF7E7FB3DE0012905D1D7
:1014600040F240012248FFF7C5FB04E040F2400192
:101470001F48FFF7D9FB2FE0012905D140F2800179
:101480001B48FFF7B7FB04E040F280011848FFF764
:10149000CBFB21E0012020E000283FF453AF0128DE
:1014A0003FF45EAF02283FF469AF03283FF474AF06
:1014B00004283FF47FAF05283FF48AAF06283FF4A5
:1014C00095AF0728A0D00828ACD00928B8D00A28A2
:1014D000C4D00B28D0D0DDE70020DDF800E001B05B
:1014E000704700BF00080140001001400014014097
:1014F000000C014081B0CDF800E0A9E0012905D140
:1015000040F210016548FFF775FB04E040F210015E
:101510006248FFF789FBBBE0012905D140F20401D5
:101520005F48FFF767FB04E040F204015C48FFF707
:101530007BFBADE0012905D142F200015948FFF7DC
:1015400059FB04E042F200015648FFF76DFB9FE0B3
:10155000012905D140F200415148FFF74BFB04E05F
:1015600040F200414E48FFF75FFB91E0012905D1B1
:1015700040F600014A48FFF73DFB04E040F6000159
:101580004748FFF751FB83E0012905D141F20001F3
:101590004348FFF72FFB04E041F200014048FFF70A
:1015A00043FB75E0012905D140F201013B48FFF7FB
:1015B00021FB04E040F201013848FFF735FB67E00A
:1015C000012905D140F200413648FFF713FB04E042
:1015D00040F200413348FFF727FB59E0012905D1CC
:1015E00040F200212F48FFF705FB04E040F2002104
:1015F0002C48FFF719FB4BE0012905D140F20011FF
:101600002848FFF7F7FA04E040F200112548FFF7F9
:101610000BFB3DE0012905D140F240012248FFF7D4
:10162000E9FA04E040F240011F48FFF7FDFA2FE01D
:10163000012905D140F280011B48FFF7DBFA04E0E5
:1016400040F280011848FFF7EFFA21E0012020E086
:1016500000283FF453AF01283FF45EAF02283FF467
:1016600069AF03283FF474AF04283FF47FAF052827
:101670003FF48AAF06283FF495AF0728A0D008288A
:10168000ACD00928B8D00A28C4D00B28D0D0DDE7C8
:101690000020DDF800E001B0704700BF0008014005
:1016A0000010014000140140000C014081B0CDF851
:1016B00000E00B4D00F20C010C6800F208010B6811
:1016C000011D0A680168084691B29AB2A3B220B41B
:1016D000FFF7DCFB01B00020DDF800E001B070474F
:1016E0001C23000081B0CDF800E0094902B440F2AB
:1016F000000340F2000240F20001FFF7BDFA01B022
:10170000044A05490A600020DDF800E001B0704796
:10171000B0220000DD0C00003002002081B0CDF8C6
:1017200000E0094902B440F2000340F2000240F236
:101730000001FFF7ABFB01B0044A05490A60002035
:10174000DDF800E001B070471C230000A50C00008C
:101750003002002081B0CDF800E0094902B440F227
:10176000000340F2000240F20001FFF711FB01B05C
:10177000044A05490A600020DDF800E001B0704726
:1017800044220000C10C0000300200200149086022
:10179000704700BF9001214201490860704700BFB7
:1017A000A481224201490860704700BFA081224203
:1017B00001490860704700BF80012142014908606B
:1017C000704700BFA881224201490860704700BFEE
:1017D0009881214201490860704700BF8C01224274
:1017E00001490860704700BFB88122420149086082
:1017F000704700BF9C81214201490860704700BFCB
:101800009401214201490860704700BFB0012242A3
:1018100001490860704700BFAC01224201490860DD
:10182000704700BF8801224201490860704700BF2D
:10183000B481224201490860704700BFA8012242DA
:1018400081B0CDF800E009E00846FFF75BFD0AE053
:101850000846FFF72BFF06E0012004E00028F3D044
:101860000128F5D0F8E7DDF800E001B07047FFFF90
:1018700081B0CDF800E05FFA81F95FFA82FA0FE0FB
:101880005FFA8AF15FFA89F0FFF734FE0DE05FFA44
:101890008AF15FFA89F0FFF751FD06E0012004E0CC
:1018A0000028EDD00128F2D0F8E7DDF800E001B023
:1018B0007047FFFF81B0CDF800E068B10120084C0F
:1018C0002468A047FFF75CFCFFF75AFC0020044C9B
:1018D0002468A047FFF760FCDDF800E001B0704726
:1018E0005004002001490870704700BF2F020020FB
:1018F00081B0CDF800E011E00846FFF72BFF16E0BD
:101900000846FFF70BFF12E00846FFF7EBFE0EE07C
:101910000846FFF7DBFC0AE0012008E00028EBD0D6
:101920000128EDD02028EFD03028F1D0F4E7DDF801
:1019300000E001B07047FFFF83B0CDF800E0024641
:1019400010460D228DF808200A228DF809201FE08C
:10195000FFF772FC23E002782AB10190FFF76CFCDC
:101960000198401CF7E71AE002782AB10190FFF7CE
:1019700063FC0198401CF7E702AA1046FFF75CFCE5
:101980000DF109021046FFF757FC08E0062007E0BA
:101990000029DDD00129DED00229E5D0F6E70020BC
:1019A000DDF800E003B0704781B0CDF800E0012120
:1019B00049B20E480160002149B20D480160012181
:1019C0000C48016048F69F410B48016040F22C0032
:1019D000FFF7F6FB012149B20848016004480160A5
:1019E000FFF7E6FBDDF800E001B0704780034242FC
:1019F00000000042280000402C000040800100420E
:101A000081B0CDF800E003460846FFF725FC1846F4
:101A1000FFF750FCDDF800E001B0704781B0CDF871
:101A200000E00023274A13700023274A1370002385
:101A3000264A13700023264A1370264A1060264A4D
:101A40001160264A1046FFF71DFC254A106000234E
:101A5000244A13800123244A13800023234A13803D
:101A60000023234A13700023194A13700023174AD6
:101A700013700123134A13700023154A13700023B7
:101A8000124A137000230F4A13700023194A13607F
:101A90000123194A13700023174A13700023174AB1
:101AA00013600123164A13700023154A1370154A58
:101AB000127812B10120FFF7E3FBDDF800E001B07E
:101AC000704700BF60040020610400206204002011
:101AD000630400205C020020580200202E02002037
:101AE00054020020500200204C0200206404002018
:101AF0006604002068050020660500206C050020B3
:101B0000670500202F02002082B0CDF800E0019090
:101B100001991A48FFF70CFA1949097811B1FFF732
:101B20001FFAF9E717490198FFF746F90D210198C7
:101B3000FFF7E0FA0021002907D0042212490A70B9
:101B400012490E480F4C2468A047002210490A7021
:101B5000002210490A70012209490A7000220E4928
:101B60000A6001220D490A700549097811B1FFF791
:101B7000F7F9F9E7DDF800E002B070477C050020D6
:101B800060040020700500207A0500207805002000
:101B90006304002062040020680500206605002020
:101BA00081B0CDF800E0FFF7DBF9DDF800E001B02F
:101BB0007047FFFF81B01548006840F001011348ED
:101BC0000160134913480160104801681248014040
:101BD0000E4801600D4801686FF4802001400B48F9
:101BE00001600C4801686FF4FE0001400948016083
:101BF000064801686FF0A0500140044801604FF0B2
:101C000000010648016001B0704700BF00100240AB
:101C10000000FFF004100240FFFFF6FE2C1002400F
:101C20001C480078C8B11C4802681B480068411C69
:101C3000194801601948006882420ED900211548F0
:101C400001700021144801601548018815484118A9
:101C50000020087001211448017014480078C0B1B8
:101C60001348026812480068411C1148016011487D
:101C700082420ED900210D48017000210C480160FC
:101C800007480188074841180020087001210A48C8
:101C9000017070476605002068050020740500206B
:101CA000640400206604002063040020670500200F
:101CB0006C050020050000006204002081B01CF8C3
:101CC000019B0BF8019BBBEB0A0FF8D101B07047E9
:101CD00081B0CDF800E0012200210020FFF7C8FD0F
:101CE000002201210020FFF7C3FD09480146002022
:101CF000FFF7A6FD42F280512020FFF7F9FD0548CD
:101D00000221FFF719FEDDF800E001B0704700BFC7
:101D1000FC2300000000002081B0CDF800E0FFF7B8
:101D200043FE2E492E48FFF76BFE2E4840F2DC5151
:101D3000FFF774FE0120FFF7D5FD0020FFF7BAFD85
:101D400029480221FFF7F8FD2848FFF7DDFE284863
:101D5000FFF7DAFEFFF720FA2648FFF7D5FEFFF778
:101D60001BFA2548FFF7D0FEFFF716FA2348FFF7C6
:101D7000CBFEFFF711FA2248FFF7C6FEFFF70CFA79
:101D800020480221FFF7D8FD1F480221FFF7D4FDAC
:101D90001E48FFF7B9FE1E48FFF7B6FE1D48FFF7C5
:101DA000B3FE1D48FFF7B0FE1C48FFF7ADFE1C4810
:101DB000FFF7AAFE1B48FFF7A7FE1B48FFF7A4FE8C
:101DC0001A48FFF7A1FE1A48FFF79EFE19480221A4
:101DD000FFF7B2FDDDF800E001B070471C24000001
:101DE0008823000061110000140000202F00002053
:101DF00034000020390000203E0000204800002070
:101E000052000020610000207A0000209A0000208B
:101E1000C7000020EF00002017010020260100204D
:101E200062010020710100208F010020B701002015
:101E3000DF010020EE01002081B04FF000094FF0DB
:101E4000000CBDEB0A0F04DCBDEB0B0F01DBD4462D
:101E5000EA464BF8049BBBEB0A0FFAD1BCEB0A0F26
:101E600005DDE246D9F800B00BF1040BF1E701B053
:101E70007047FFFF81B0CDF800E0FFF7D1FE0021F1
:101E800049B203480160DDF800E001B0704700BFCF
:101E90000002004200F012F800F008FB00F0B0F879
:101EA00000F0C4FAFFF714FFFFF736FFFFF778FEE4
:101EB000FCE7FEE781B0FEE701B0704781B0CDF8E6
:101EC00000E0464A464B474C47494BF6803081423A
:101ED00006D94648006840F002014448016011E01C
:101EE00045F6C050814206D94048006840F00101E3
:101EF0003E48016006E03D4801686FF00700014080
:101F00003A480160FFF756FE3948036039480460DB
:101F1000394802EA00013948016002F0010040B18D
:101F200019463648006800F00200002800D1F8E7A2
:101F300000E0194602F4803040B10B462F4800689B
:101F400000F40030002800D1F8E700E00B4602F072
:101F5000805068B12948006840F0805127480160EE
:101F60002648006800F00050002800D1F8E7FFE79D
:101F700002F0806078B12148006840F080611F481D
:101F8000016011461A461D48006800F000600028F4
:101F900000D1F8E701E011461A4601F0807070B1F7
:101FA0001648006840F080711448016011461348DB
:101FB000006800F0007000B9F9E70A46FFE70C4836
:101FC000006800F00C01900000F00C00814200D08D
:101FD000F5E7DDF800E001B0704700BF81000105C2
:101FE00002841D0044060100401901000020024047
:101FF000041002402C100240FFFF0F0000100240AE
:1020000081B002490248016001B0704740190100E7
:10201000340200202D2D2D2053797374656D2049D5
:102020006E6974202D2D2D002D2D2D2047656E6598
:1020300072696320415420636F6D6D616E64202D61
:102040002D2D0041540000004154453100415449B8
:10205000000041542B4346554E3D310041542B4323
:10206000494D4900000041542B434744434F4E54CF
:102070003F000000002D2D2D2D2D2D2D2D2D2D2D32
:102080002D2D2D2D2D2D2D2D2D2D2D2D2D002D2DAD
:102090002D2055445020736572766572202D2041A5
:1020A0005420636F6D6D616E64202D2D2D004154A1
:1020B0002B4E434F4E4649473D43525F30333534F4
:1020C0005F303333385F534352414D424C494E47A2
:1020D0002C5452554500000000000041542B4E4343
:1020E0004F4E4649473D43525F303835395F53497B
:1020F0005F41564F49442C545255450000000000A2
:1021000000000041542B4E434F4E4649473D415538
:10211000544F434F4E4E4543542C46414C5345007B
:10212000000000000000000000000041542B4E425F
:10213000414E443D38000000000041542B434744C9
:10214000434F4E543D312C224950222C226D6F6258
:10215000696C655F6F70657261746F725F41504E3C
:10216000220000000000000000000000000000004D
:1021700000000000000041542B43455245473D32CA
:10218000000000000041542B434F50533D312C328E
:102190002C223132333435220000000000000000D0
:1021A00000000041542B4E534F43523D20444752B0
:1021B000414D2C31372C31363636362C310000006B
:1021C000000000000000000000000041542B4E53AE
:1021D0004F53543D302C38332E35382E3232382E72
:1021E00036342C31363636362C322C4142434400BC
:1021F00000000041542B4E534F434C3D3000000033
:1022000000002D2D2D2D2D2D2D2D2D2D2D2D2D2D58
:102210002D2D2D2D2D2D2D2D2D2D000000002B00D1
:1022200000230000240000255C00260000000000C0
:102230000000003D3F003F00003D00003A00000D5F
:10224000000000FF3800000039000000FFFFFFFF22
:10225000000000000000000000000000000000007E
:10226000000000000000000000000000000000006E
:102270000000000000000000180800001800000026
:10228000000000000000000000000000000000004E
:10229000000000000000000000000000000000003E
:1022A00000000000000000000000000030001408E2
:1022B000090000000A000000FFFFFFFF000000000F
:1022C000000000000000000000000000000000000E
:1022D00000000000000000000000000000000000FE
:1022E00000000000180800001800000000000000B6
:1022F00000000000000000000000000000000000DE
:1023000000000000000000000000000000000000CD
:102310000000000000000000040000003500000084
:1023200036000000FFFFFFFF00000000000000007B
:10233000000000000000000000000000000000009D
:10234000000000000000000000000000000000008D
:102350001808000018000000000000000000000045
:10236000000000000000000000000000000000006D
:10237000000000000000000000000000000000005D
:1023800000000000080000088D1700001D18000064
:102390002918000035180000111800000518000069
:1023A000B1170000BD17000099170000A517000025
:1023B000C9170000ED170000FFFFFFFFFFFFFFFF41
:1023C000FFFFFFFFFFFFFFFFFFFFFFFFFFFFFFFF1D
:1023D000FFFFFFFFFFFFFFFFFFFFFFFFFFFFFFFF0D
:1023E000FFFFFFFFFFFFFFFF0000000000000000F5
:1023F000000000000000000000FFFFFF802500003B
:1024000000000000000000000000000000000000CC
:10241000010203040102030406070809C10C0000BD
:1024200029060000E10500000204060800B5DFF8F7
:1024300014B0DFF814A0DFF814C0FFF73FFC00BDB4
:10244000704700BF000000202F0200201420000071
:10245000FFFFFFFFFFFFFFFFFFFFFFFFFFFFFFFF8C
:10246000FFFFFFFFFFFFFFFFFFFFFFFFFFFFFFFF7C
:10247000FFFFFFFFFFFFFFFFFFFFFFFFFFFFFFFF6C
:10248000FFFFFFFFFFFFFFFFFFFFFFFFFFFFFFFF5C
:10249000FFFFFFFFFFFFFFFFFFFFFFFFFFFFFFFF4C
:1024A000FFFFFFFFFFFFFFFFFFFFFFFF00B5DFF8AC
:1024B00010B0DFF810A0FFF7BFFC00BD704700BFF1
:1024C000000000207C060020FFFFFFFFFFFFFFFF52
:00000001FF
